:020000040800F2
:10000000100900202D0500088D050008D3190008EF
:100010008D0500088D0500088D0500080000000012
:100020000000000000000000000000008D05000836
:100030008D050008000000008D050008110800086B
:100040008D0500088D0500088D0500088D05000848
:100050008D0500088D0500088D0500088D05000838
:100060008D0500088D0500088D0500088D05000828
:100070008D0500088D0500088D0500088D05000818
:100080008D0500088D0500088D0500088D05000808
:100090008D0500088D0500088D0500088D050008F8
:1000A0008D0500088D0500088D0500088D050008E8
:1000B0008D0500088D0500088D0500088D050008D8
:1000C0008D0500088D0500088D0500088D050008C8
:1000D0008D0500088D0500088D0500088D050008B8
:1000E0008D0500088D0500088D0500080000000042
:1000F0000000000000000000000000000000000000
:1001000000000000000000005FF808F180B582B038
:1001100000AF7860144B1B785A1CD1B2124A117090
:100120007A68D1B2114AD1540F4B1B780F4A002183
:10013000D1540D4B1B7801330F2B05D87B680A2B4C
:1001400002D07B68002B0CD1074B00221A70074BA2
:1001500004201946002201F031FC0346002B00D098
:1001600000BF0837BD4680BDB8040020A8040020A9
:1001700080B485B000AF786039600023FB817B6874
:100180001B88FB817A682E4B9A4213D07A682D4BDC
:100190009A420FD07B68B3F1804F0BD07A682A4B1C
:1001A0009A4207D07A68294B9A4203D07A68284B42
:1001B0009A4208D1FB8923F07003FB813B685A887F
:1001C000FB891343FB817A68224B9A420CD07A68F0
:1001D000214B9A4208D0FB8923F44073FB813B6892
:1001E000DA88FB891343FB817B68FA891A803B68B4
:1001F0009A887B689A853B681A887B681A857A6832
:100200000F4B9A420FD07A680E4B9A420BD07A6805
:10021000124B9A4207D07A68114B9A4203D07A68FF
:10022000104B9A4204D13B681B7A1A467B681A86A7
:100230007B6801229A821437BD465DF8047B7047C3
:10024000002C014000340140000400400008004040
:10025000000C00400010004000140040004001402D
:10026000004401400048014080B483B000AF786092
:100270000B46FB70FB78002B08D07B681B889BB279
:1002800043F001039AB27B681A8007E07B681B8801
:100290009BB223F001039AB27B681A800C37BD46EB
:1002A0005DF8047B704700BF80B483B000AF786016
:1002B0000B467B807B687A889A840C37BD465DF854
:1002C000047B704780B483B000AF78607B689B8C00
:1002D0009BB218460C37BD465DF8047B704700BFE3
:1002E00080B500AF154B154A126842F001021A6042
:1002F000124A124B5968124B0B4053600F4A0F4B76
:100300001B6823F0847323F4803313600B4B0B4A78
:10031000126822F480221A60084B084A526822F4BC
:10032000FE025A60054B4FF41F029A6000F078F805
:10033000044B4FF000629A6080BD00BF0010024085
:100340000000FFF800ED00E080B485B000AF0023AE
:10035000FB600023BB6000237B602C4B5B6803F0D9
:100360000C03FB60FB68042B07D0082B09D0002B83
:1003700034D1274B274A1A6034E0254B254A1A60AE
:1003800030E0224B5B6803F47013BB601F4B5B686B
:1003900003F480337B60BB689B0C0233BB607B68DB
:1003A000002B06D1BB681C4A02FB03F2184B1A60F3
:1003B00013E0164B5B6803F40033002B06D0BB68D8
:1003C000154A02FB03F2124B1A6006E0BB68114AA1
:1003D00002FB03F20E4B1A6004E003E00C4B0D4AE3
:1003E0001A6000BF094B5B6803F0F0031B090B4A5E
:1003F000D35CDBB2FB60064B1A68FB68DA40044B47
:100400001A601437BD465DF8047B70470010024047
:100410000000002000127A0000093D0004000020C6
:1004200080B500AF00F002F880BD00BF80B483B09B
:1004300000AF00237B6000233B603A4B394A1268CF
:1004400042F480321A60374B1B6803F400333B6080
:100450007B6801337B603B68002B03D17B68B3F57D
:10046000A06FF0D12F4B1B6803F40033002B02D098
:1004700001233B6001E000233B603B68012B4BD133
:10048000294B294A126842F010021A60264B264A6C
:10049000126822F003021A60234B234A126842F0CA
:1004A00002021A601F4B1F4A52685A601D4B1D4AB8
:1004B00052685A601B4B1B4A526842F480625A6071
:1004C000184B184A526822F47C125A60154B154A90
:1004D000526842F4E8125A60124B124A126842F013
:1004E00080721A6000BF0F4B1B6803F00073002B73
:1004F000F9D00C4B0B4A526822F003025A60094BA8
:10050000084A526842F002025A6000BF054B5B681D
:1005100003F00C03082BF9D10C37BD465DF8047BC2
:10052000704700BF001002400020024080B582B03A
:1005300000AF114B7B60114B3B6007E03B681A1D1D
:100540003A607A68111D796012681A603A680C4B3B
:100550009A42F3D30B480C494FF000028842B8BFCF
:1005600040F8042BFFF6FAAFFFF7BAFE00F0F8F9F7
:100570000837BD4680BD00BF555D00080000002063
:10058000A8040020A80400201005002080B400AFBB
:10059000FEE700BF80B489B000AF78603960002307
:1005A000FB6100233B610023BB610023FB60002350
:1005B0007B610023BB603B68DB7803F00F03FB61CA
:1005C0003B68DB7803F01003002B04D03B689B787A
:1005D000FA691343FB613B681B88DBB2002B44D0F4
:1005E0007B681B687B610023BB6138E0BB6901222B
:1005F00002FA03F3FB603B681B881A46FB68134052
:100600003B613A69FB689A4226D1BB699B00FB605B
:10061000FB680F2202FA03F3BB60BB68DB437A6915
:1006200013407B61FB68FA6902FA03F37A691343AA
:100630007B613B68DB78282B05D1BB6901229A409E
:100640007B685A6108E03B68DB78482B04D1BB69C2
:1006500001229A407B681A61BB690133BB61BB69A7
:10066000072BC3D97B687A691A603B681B88FF2B0C
:1006700046D97B685B687B610023BB613AE0BB695C
:100680000833012202FA03F3FB603B681B881A4619
:10069000FB6813403B613A69FB689A4227D1BB690A
:1006A0009B00FB60FB680F2202FA03F3BB60BB6890
:1006B000DB437A6913407B61FB68FA6902FA03F352
:1006C0007A6913437B613B68DB78282B05D1BB69D2
:1006D000083301229A407B685A613B68DB78482BDB
:1006E00005D1BB69083301229A407B681A61BB6956
:1006F0000133BB61BB69072BC1D97B687A695A603A
:100700002437BD465DF8047B704700BF80B485B0D8
:1007100000AF78600B467B800023FB737B689A6890
:100720007B881340002B02D00123FB7301E00023E0
:10073000FB73FB7B18461437BD465DF8047B70479E
:1007400080B483B000AF78600B467B807A887B688A
:100750001A610C37BD465DF8047B704780B483B0E6
:1007600000AF78600B467B807A887B685A610C37D3
:10077000BD465DF8047B704780B483B000AF03468C
:100780003960FB7197F90730002B0BDA0D49FB79C3
:1007900003F00F03043B3A68D2B21201D2B20B4409
:1007A0001A7609E0084997F907303A68D2B212017F
:1007B000D2B20B4483F800230C37BD465DF8047BAE
:1007C000704700BF00ED00E000E100E080B582B0BE
:1007D00000AF78607B68B3F1807F01D3012311E023
:1007E0000A4B7A6822F07F42013A5A604FF0FF309C
:1007F0000F21FFF7C1FF054B00229A60034B072230
:100800001A60002318460837BD4680BD10E000E09E
:1008100080B400AF044B1B685A1C034B1A60BD46E2
:100820005DF8047B704700BF0005002080B485B0F0
:1008300000AF0346FB80124BFA8842F2283101FBDD
:1008400002F25A600E4B00229A600D4B01221A6090
:100850000B4B1B68FB60FB6803F00103002B04D00B
:10086000FB6803F48033002BF2D0054B00221A60A2
:10087000034B00229A601437BD465DF8047B704735
:1008800010E000E080B586B000AF44F20400012122
:1008900000F008FF25233B7500237B750023BB7503
:1008A0000123FB7507F11403184601F0BFF84FF45C
:1008B00000733B821823FB740323BB7407F11003FE
:1008C00016481946FFF766FE4FF480633B82042307
:1008D000FB7407F1100311481946FFF75BFE4FF454
:1008E00016533B600023BB800023FB8000233B8129
:1008F0000023BB810C237B813B460948194600F04D
:100900000DFF0748012100F0C3FF054840F22551C3
:10091000012200F0DDFF1837BD4680BD0008014010
:100920000038014080B582B000AF78600FE07B688E
:100930005A1C7A601B780948194601F011F800BF6B
:100940000648402101F01EF80346002BF8D07B68D2
:100950001B78002BEBD10837BD4680BD0038014025
:1009600080B5CAB000AF07F1D00250231046002175
:100970001A4601F035FDFFF7E7FC8B4B1A688B4BED
:10098000A3FB02139B091846FFF720FF0346002B29
:1009900000D0FEE71020012100F084FE4FF4005348
:1009A000A7F8CC30102387F8CF30032387F8CE3058
:1009B00007F1CC037E481946FFF7ECFD7C484FF465
:1009C0000051FFF7CBFEFFF75DFF7A48FFF7AAFF64
:1009D0004FF41F40FFF72AFF7748FFF7A3FF4FF4BC
:1009E0001F40FFF723FF7548FFF79CFF4FF41F40A0
:1009F000FFF71CFF7248FFF795FF4FF41F40FFF70A
:100A000015FF7048FFF78EFF4FF41F40FFF70EFFF2
:100A10006D48FFF787FF4FF41F40FFF707FF6B4854
:100A2000FFF780FF4FF41F40FFF700FF6848FFF714
:100A300079FF0120012100F053FE0820012100F080
:100A400031FE64486449402200F0E6F8614800F055
:100A500019F90246614B1A60604B1A68604B1B68BB
:100A60009A4203D15F4800F015FD7DE05B4B1A68A8
:100A70005D4B1B689A4274D15C4800F00BFD554BEE
:100A80001B781A46534B5B78594811461A4600F0BA
:100A9000D7FC504B1B783A46104656491A4600F090
:100AA000E3FC4C4B5B7807F13402104651491A467F
:100AB00000F0DAFC07F168034F4A07CA03C31A7053
:100AC00007F168023B461046194601F091FC07F118
:100AD0006803184601F099FC034607F168021344C5
:100AE000464A12881A8007F16803184601F08DFC07
:100AF000034607F168021344414A10681860918860
:100B0000927999809A7107F1680207F134031046CF
:100B1000194601F06DFC07F16803184601F075FCF9
:100B2000034607F168021344364A12881A8007F117
:100B300068033548194600F083FC3448FFF7F2FE9D
:100B40004FF40040FFF772FE07F168031846FFF705
:100B5000E9FE4AF68010FFF769FE2D48FFF7E2FE36
:100B600002E02C4800F096FC0123C7F8243113E082
:100B70000123C7F8203104E0D7F820310133C7F84A
:100B80002031D7F8202141F288339A42F4DDD7F89A
:100B900024310133C7F82431D7F8242141F28833B6
:100BA0009A42E5DD52E700BF00000020D34D6210FD
:100BB000001001400C590008145900083859000869
:100BC00064590008745900088459000894590008B1
:100BD000AC590008C8040020000C014008050020A2
:100BE00018000020085A000814000020205A0008AD
:100BF000305A0008505A0008545A0008605A000839
:100C0000645A00086C5A0008705A00087C5A0008A0
:100C1000945A0008A85A000880B588B000AFF86060
:100C2000B9601346FB80FB68BA685A60FB68FA88B3
:100C30001A814BF6FF433B835423BB8200237B8303
:100C40000023FB8207F114034FF080401946FFF7A1
:100C50008FFA4FF080400121FFF706FBFB681B89EC
:100C60003B821023FB740323BB74FB685A6807F1B3
:100C7000100310461946FFF78DFC00231846203755
:100C8000BD4680BD80B586B000AF786000233B7460
:100C900000237B740023BB740023FB7400233B758B
:100CA0007B681B89BB811023FB730323BB737B68A9
:100CB0005A6807F10C0310461946FFF76BFC7B6876
:100CC0005A687B681B8910461946FFF747FD4FF0AD
:100CD000804300229A8400BF4FF080439B8C9AB2DD
:100CE00044F250639A42F7D97B685A687B681B8943
:100CF00010461946FFF724FD4FF0804300229A84E6
:100D000000BF4FF080439B8C9BB2282BF9D948231E
:100D1000FB737B685A6807F10C0310461946FFF70E
:100D200039FC4FF0804300229A8407E04FF0804363
:100D30009B8C9BB2642B01D9032387E07B685A68A4
:100D40007B681B8910461946FFF7E0FC0346002B21
:100D5000ECD04FF0804300229A8407E04FF08043AC
:100D60009B8C9BB2642B01D903236FE07B685A688C
:100D70007B681B8910461946FFF7C8FC0346002B09
:100D8000ECD10023BB754DE00023FB7544E000BFB0
:100D90007B685A687B681B8910461946FFF7B6FCCA
:100DA0000346002BF4D04FF080400021FFF77CFA7F
:100DB00000BF7B685A687B681B8910461946FFF79D
:100DC000A5FC0346002BF4D14FF08040FFF77AFAE0
:100DD00003467B75BB7DBA7D07F118010A4412F802
:100DE000082C5200D2B207F118010B4403F8082C6A
:100DF0007B7D282B0DD9BB7DBA7D07F118010A44F4
:100E000012F8082C0132D2B207F118010B4403F892
:100E1000082CFB7D0133FB75FB7D072BB7D9BB7D10
:100E20000133BB75BB7D042BAED93B7D1A463B7CA1
:100E30001946BB7C0B449A4201D0022306E0BA7CDF
:100E40007B681A703A7C7B685A7001231846183701
:100E5000BD4680BD80B582B000AF0346FB71FB7913
:100E60001846FFF753F90837BD4680BD80B483B0FC
:100E700000AF78600B46FB707B68FA781A7001232C
:100E800018460C37BD465DF8047B704780B485B0CA
:100E900000AF786039600023FB600AE07B685A1C71
:100EA0007A603A68511C396012781A70FB68013315
:100EB000FB603B681B78002BF0D1FB6818461437A9
:100EC000BD465DF8047B704780B586B000AFF86022
:100ED0007A603B600B46FB7200237B617B68013BC1
:100EE0007B603B68092B10D93A681E4BA3FB0213A9
:100EF000DB08FA7AF86811467A68FFF7E5FF78614F
:100F00007B69FA681344FB6011E00DE0FB7AF86836
:100F10001946FFF7ABFFFB680133FB607B690133C8
:100F20007B617B68013B7B607B68002BEEDC396872
:100F30000C4BA3FB0123DA0813469B0013445B0010
:100F4000CA1AD3B23033DBB2F8681946FFF78EFF06
:100F500003467A6913447B617B6918461837BD469E
:100F600080BD00BFCDCCCCCC80B586B000AFF860E2
:100F70007A603B600B46FB7200237B613B68002B71
:100F800003DA3B685B423B6101E03B683B617B68A5
:100F9000013B7B603B69092B21D93B68002B0DDAB3
:100FA0003A692F4BA3FB0213DB085B42FA7AF8681D
:100FB00011467A68FFF7D8FF78610BE03A69284B51
:100FC000A3FB0213DB08FA7AF86811467A68FFF788
:100FD000CBFF78617B69FA681344FB6026E03B68CD
:100FE000002B03DA7B68013B7B600EE00DE0FB7AAF
:100FF000F8681946FFF73AFFFB680133FB607B692D
:1010000001337B617B68013B7B607B68002BEEDCFE
:101010003B68002B0ADAF8682D21FFF727FF03460B
:101020007A6913447B61FB680133FB6039690C4BBF
:10103000A3FB0123DA0813469B0013445B00CA1A82
:10104000D3B23033DBB2F8681946FFF70FFF03461F
:101050007A6913447B617B6918461837BD4680BDA9
:10106000CDCCCCCC80B588B002AFF8607A600A46AF
:10107000FA72BB7200237B617B68013B7B603B6A39
:101080001B09002B12D03B6A1909FA7ABB7A00912E
:10109000F86811467A68FFF7E5FF03467A6913445A
:1010A0007B617B69FA681344FB6011E00DE0FB7A19
:1010B000F8681946FFF7DAFEFB680133FB607B69CD
:1010C00001337B617B68013B7B607B68002BEEDC3E
:1010D0003B6A03F00F03092B0BD83B6ADBB203F02A
:1010E0000F03DBB23033DBB2F8681946FFF7BEFE00
:1010F00019E0BB7A002B0BD03B6ADBB203F00F0385
:10110000DBB23733DBB2F8681946FFF7AFFE0AE00F
:101110003B6ADBB203F00F03DBB25733DBB2F86894
:101120001946FFF7A3FE7B6901337B617B69184693
:101130001837BD4680BD00BF80B58AB002AFF860E9
:10114000B9607A603B600023BB6100237B61FB6870
:10115000002B03D0FB6800221A70F8E0F7E07B68F0
:101160001B78252B0BD0FB685A1CFA607A68511C3F
:10117000796012781A707B6901337B61E7E07B68E4
:1011800001331B78252B0BD1FB685A1CFA602522F2
:101190001A707B6802337B607B6901337B61D6E028
:1011A0002023FB770023BB777B6801337B607B6860
:1011B0001B78302B05D13023FB777B6801337B60B4
:1011C0000FE00EE0BB7F1A46920013445B00DAB2D8
:1011D0007B681B781344DBB2303BBB777B68013301
:1011E0007B607B681B782F2B03D97B681B78392B9E
:1011F000E8D9BA7F7B6913441A46BB689A4205D97D
:10120000BB68DAB27B69DBB2D31ABB777B681B7829
:10121000583B202B00F28D8001A252F823F000BF32
:10122000ED120008331300083313000833130008CD
:101230003313000833130008331300083313000876
:101240003313000833130008331300081D1300087C
:10125000A5120008331300083313000833130008E5
:1012600033130008A51200083313000833130008D5
:101270003313000833130008331300083313000836
:101280003313000833130008331300080913000850
:1012900033130008BB12000833130008331300088F
:1012A000D1120008BA7F3B68191D39601B68F97FAD
:1012B000F868FFF759FEB8613EE0BA7F3B68191D38
:1012C00039601B68F97FF868FFF7FEFDB86133E00D
:1012D000BA7F3B68191D39601968FB7F0091F86877
:1012E00019460023FFF7BEFEB86125E0BA7F3B68D0
:1012F000191D39601968FB7F0091F86819460123B0
:10130000FFF7B0FEB86117E03B681A1D3A601B6832
:10131000F8681946FFF7BAFDB8610DE03B681A1D81
:101320003A601B68DBB2F8681946FFF79FFDB861A9
:1013300002E04FF0FF3325E07B6801337B60BB693F
:10134000FA681344FB607A69BB6913447B617B686C
:101350001B78002B04D07A69BB689A42FFF4FFAE79
:101360007A69BB689A4203D2FB6800221A7008E0CF
:10137000FB68013BFB60FB6800221A707B69013B44
:101380007B617B6918462037BD4680BD80B584B03F
:1013900000AFF860B9607A60F8686421BA687B6869
:1013A000FFF7CAFE034618461037BD4680BD00BF92
:1013B000B0B5A6B000AFF860B9607A60144B07F121
:1013C00010041D460FCD0FC40FCD0FC42B68236032
:1013D00007F134031846B9687A68FFF7D7FF034668
:1013E000632B09DD0B4B1B68DB6807F1100210460D
:1013F000194600F081F8FEE707F134031846F96852
:1014000000F07AF8034618469837BD46B0BD00BFD5
:10141000B45A00085004002080B582B000AF786054
:101420003960064B1B689B68184679683A68FFF775
:10143000BFFF034618460837BD4680BD5004002054
:101440000FB480B582B000AF07F114033B60386978
:101450003968FFF7E1FF78607B6818460837BD46BA
:10146000BDE8804004B070470EB480B585B000AFD1
:10147000786007F12003BB607868F969BA68FFF704
:1014800085FFF860FB6818461437BD46BDE880400C
:1014900003B0704780B582B000AF7860054B1B6821
:1014A0009B687868194600F027F803461846083705
:1014B000BD4680BD5004002080B582B000AF78608A
:1014C00039600C4B1B689A683B689A4205D0094BFF
:1014D0001B68DA683B689A4206D17B68DBB2184623
:1014E000FFF7B8FC7B6801E04FF0FF331846083780
:1014F000BD4680BD5004002080B584B000AF786048
:1015000039600023FB6012E07B681B78184639685D
:10151000FFF7D2FF0346B3F1FF3F02D14FF0FF3395
:101520000AE0FB680133FB607B6801337B607B680A
:101530001B78002BE8D1FB6818461037BD4680BDEC
:1015400080B487B000AF786000237B6100233B61EB
:101550000023FB600023BB604D4B5B6803F00C0372
:101560007B617B69042B07D0082B09D0002B34D179
:101570007B68484A1A6034E07B68464A1A6030E06B
:10158000434B5B6803F470133B61414B5B6803F4AE
:101590008033FB603B699B0C02333B61FB68002B93
:1015A00006D13B693C4A02FB03F27B681A6013E0F8
:1015B000374B5B6803F40033002B06D03B69364A97
:1015C00002FB03F27B681A6006E03B69314A02FBCA
:1015D00003F27B681A6004E003E07B682D4A1A601E
:1015E00000BF2B4B5B6803F0F0037B617B691B0939
:1015F0007B612A4A7B6913441B78DBB2BB607B6842
:101600001A68BB68DA407B685A60214B5B6803F458
:10161000E0637B617B691B0A7B61204A7B69134421
:101620001B78DBB2BB607B685A68BB68DA407B68BA
:101630009A60174B5B6803F460537B617B69DB0A3C
:101640007B61164A7B6913441B78DBB2BB607B6805
:101650005A68BB68DA407B68DA600D4B5B6803F45C
:1016600040437B617B699B0B7B610D4A7B69134423
:101670001B78DBB2BB607B68DA68BB68B2FBF3F255
:101680007B681A611C37BD465DF8047B704700BF5C
:101690000010024000127A0000093D0058040020AA
:1016A0006804002080B483B000AF78600B46FB7004
:1016B000FB78002B06D0094B084A91697A680A43E7
:1016C0009A6106E0054B054A91697A68D2430A405F
:1016D0009A610C37BD465DF8047B704700100240EC
:1016E00080B483B000AF78600B46FB70FB78002BB2
:1016F00006D0094B084AD1697A680A43DA6106E0E4
:10170000054B054AD1697A68D2430A40DA610C3741
:10171000BD465DF8047B70470010024080B58CB078
:1017200000AF786039600023FB620023BB620023B6
:101730007B6200233B620023FB617B68FB617B686B
:101740001B8A9BB2FB62FA6A4CF6FF731340FB6282
:101750003B68DB88FA6A1343FB62FB6A9AB27B68D8
:101760001A827B689B899BB2FB62FA6A4EF6F3137E
:101770001340FB623B689A883B681B8913439AB20B
:101780003B685B8913439BB2FA6A1343FB62FB6AB3
:101790009AB27B689A817B689B8A9BB2FB62FA6AE9
:1017A0004FF6FF431340FB623B689B89FA6A134381
:1017B000FB62FB6A9AB27B689A8207F108031846BB
:1017C000FFF7BEFEFA69304B9A4202D17B69BB62D9
:1017D00001E03B69BB627B689B899BB29BB21BB2F9
:1017E000002B0CDABA6A13469B0013449A001A4481
:1017F0003B681B685B00B2FBF3F37B620BE0BA6AE9
:1018000013469B0013449A001A443B681B689B00D4
:10181000B2FBF3F37B627A6A1C4BA3FB02135B09F6
:101820001B01FB62FB6A1B09642202FB03F37A6A59
:10183000D31A3B627B689B899BB29BB21BB2002B85
:101840000DDA3B6ADB0003F13202104BA3FB0213FB
:101850005B0903F00703FA6A1343FB620CE03B6A7F
:101860001B0103F13202094BA3FB02135B0903F0D6
:101870000F03FA6A1343FB62FB6A9AB27B681A8110
:101880003037BD4680BD00BF003801401F85EB5199
:1018900080B483B000AF78600B46FB70FB78002B00
:1018A00008D07B689B899BB243F400539AB27B6853
:1018B0009A8107E07B689B899BB223F400539AB21C
:1018C0007B689A810C37BD465DF8047B704700BF8A
:1018D00080B487B000AF786013460A467A807B7088
:1018E00000233B610023FB600023BB6000237B617E
:1018F0007B687B617B88DBB25B09DBB23B617B8809
:1019000003F01F03FB60FB68012202FA03F3BB60D4
:101910003B69012B03D17B690C337B6109E03B6997
:10192000022B03D17B6910337B6102E07B691433A6
:101930007B617B78002B06D07B697A691168BA6875
:101940000A431A6006E07B697A691168BA68D24373
:101950000A401A601C37BD465DF8047B704700BF23
:1019600080B483B000AF78600B467B807B88C3F384
:1019700008039AB27B689A800C37BD465DF8047BF9
:10198000704700BF80B485B000AF78600B467B80A5
:101990000023FB737B681B889AB27B8813409BB241
:1019A000002B02D00123FB7301E00023FB73FB7BC0
:1019B00018461437BD465DF8047B7047ABBE00F097
:1019C00002B800207047002A00F00180106001205A
:1019D000704706980188044A914240F00380043021
:1019E00006907047FEE70000ABBE000080B485B0F3
:1019F00000AF78600B4B1B68002B02D1094B0A4AE1
:101A00001A60084B1B68FB60064B1A687B681A4417
:101A1000044B1A60FB6818461437BD465DF8047B1A
:101A2000704700BFBC0400201005002080B487B0C0
:101A300000AF786000237B6100233B610F23FB60D4
:101A40007B68DB78002B38D0264BDB68DB4303F464
:101A5000E0631B0A7B617B69C3F104033B617B6923
:101A6000FA6822FA03F3FB607B685B781A463B69ED
:101A700002FA03F37B617B689B781A46FB6813408C
:101A80007A6913437B617B691B017B6116497B6823
:101A90001B787A69D2B20B4483F80023124B7A6820
:101AA00012785209D2B27968097801F01F01012039
:101AB00000FA01F143F822100EE00B4B7A6812781D
:101AC0005209D2B27968097801F01F01012000FAA9
:101AD00001F1203243F822101C37BD465DF8047B2B
:101AE000704700BF00ED00E000E100E081F0004140
:101AF00002E000BF83F0004330B54FEA41044FEAF3
:101B0000430594EA050F08BF90EA020F1FBF54EA8D
:101B1000000C55EA020C7FEA645C7FEA655C00F029
:101B2000E2804FEA5454D4EB5555B8BF6D420CDDFA
:101B30002C4480EA020281EA030382EA000083EA7D
:101B4000010180EA020281EA0303362D88BF30BD1D
:101B500011F0004F4FEA01314FF4801C4CEA113173
:101B600002D0404261EB410113F0004F4FEA0333D2
:101B70004CEA133302D0524263EB430394EA050F5D
:101B800000F0A780A4F10104D5F1200E0DDB02FACC
:101B90000EFC22FA05F2801841F1000103FA0EF260
:101BA000801843FA05F359410EE0A5F120050EF126
:101BB000200E012A03FA0EFC28BF4CF0020C43FA57
:101BC00005F3C01851EBE37101F0004507D54FF064
:101BD000000EDCF1000C7EEB00006EEB0101B1F5B4
:101BE000801F1BD3B1F5001F0CD349085FEA3000FA
:101BF0004FEA3C0C04F101044FEA445212F5800F05
:101C000080F09A80BCF1004F08BF5FEA500C50F1A1
:101C1000000041EB045141EA050130BD5FEA4C0C84
:101C2000404141EB010111F4801FA4F10104E9D10D
:101C300091F0000F04BF01460020B1FA81F308BF04
:101C40002033A3F10B03B3F120020CDA0C3208DDD0
:101C500002F1140CC2F10C0201FA0CF021FA02F1AB
:101C60000CE002F11402D8BFC2F1200C01FA02F11B
:101C700020FA0CFCDCBF41EA0C019040E41AA2BF40
:101C800001EB0451294330BD6FEA04041F3C1CDA08
:101C90000C340EDC04F11404C4F1200220FA04F028
:101CA00001FA02F340EA030021FA04F345EA0301D2
:101CB00030BDC4F10C04C4F1200220FA02F001FA94
:101CC00004F340EA0300294630BD21FA04F0294616
:101CD00030BD94F0000F83F4801306BF81F48011AF
:101CE0000134013D4EE77FEA645C18BF7FEA655C22
:101CF00029D094EA050F08BF90EA020F05D054EAF4
:101D0000000C04BF1946104630BD91EA030F1EBFF8
:101D10000021002030BD5FEA545C05D140004941FC
:101D200028BF41F0004130BD14F580043CBF01F5EF
:101D3000801130BD01F0004545F0FE4141F47001D5
:101D40004FF0000030BD7FEA645C1ABF19461046B0
:101D50007FEA655C1CBF0B46024650EA013406BFB1
:101D600052EA033591EA030F41F4002130BD00BF70
:101D700090F0000F04BF0021704730B54FF480642D
:101D800004F132044FF000054FF0000150E700BFAE
:101D900090F0000F04BF0021704730B54FF480640D
:101DA00004F1320410F0004548BF40424FF00001FA
:101DB0003EE700BF42004FEAE2014FEA31014FEA3D
:101DC00002701FBF12F07F4393F07F4F81F060518C
:101DD000704792F0000F14BF93F07F4F704730B5FB
:101DE0004FF4607401F0004521F0004120E700BF8E
:101DF00050EA010208BF704730B54FF000050AE015
:101E000050EA010208BF704730B511F0004502D515
:101E1000404261EB41014FF4806404F132045FEA17
:101E2000915C3FF4DCAE4FF003025FEADC0C18BFBC
:101E300003325FEADC0C18BF033202EBDC02C2F1B2
:101E4000200300FA03FC20FA02F001FA03FE40EA44
:101E50000E0021FA02F11444C1E600BF70B54FF044
:101E6000FF0C4CF4E06C1CEA11541DBF1CEA135526
:101E700094EA0C0F95EA0C0F00F0DEF82C4481EA8E
:101E8000030621EA4C5123EA4C5350EA013518BFAE
:101E900052EA033541F4801143F4801338D0A0FB9B
:101EA00002CE4FF00005E1FB02E506F00042E0FB48
:101EB00003E54FF00006E1FB03569CF0000F18BF4E
:101EC0004EF0010EA4F1FF04B6F5007F64F54074F6
:101ED00004D25FEA4E0E6D4146EB060642EAC62189
:101EE00041EA55514FEAC52040EA5E504FEACE2EF6
:101EF000B4F1FD0C88BFBCF5E06F1ED8BEF1004FF9
:101F000008BF5FEA500E50F1000041EB045170BD74
:101F100006F0004646EA010140EA020081EA0301B8
:101F2000B4EB5C04C2BFD4EB0C0541EA045170BDB4
:101F300041F480114FF0000E013C00F3AB8014F12E
:101F4000360FDEBF002001F0004170BDC4F1000477
:101F5000203C35DA0C341BDC04F11404C4F12005F8
:101F600000FA05F320FA04F001FA05F240EA020053
:101F700001F0004221F0004110EBD37021FA04F689
:101F800042EB06015EEA430E08BF20EAD37070BD43
:101F9000C4F10C04C4F1200500FA04F320FA05F0A2
:101FA00001FA04F240EA020001F0004110EBD370A4
:101FB00041F100015EEA430E08BF20EAD37070BD14
:101FC000C4F1200500FA05F24EEA020E20FA04F3ED
:101FD00001FA05F243EA020321FA04F001F000419C
:101FE00021FA04F220EA020000EBD3705EEA430E0D
:101FF00008BF20EAD37070BD94F0000F0FD101F03C
:102000000046400041EB010111F4801F08BF013C74
:10201000F7D041EA060195F0000F18BF704703F0B2
:102020000046520043EB030313F4801F08BF013D39
:10203000F7D043EA0603704794EA0C0F0CEA1355F5
:1020400018BF95EA0C0F0CD050EA410618BF52EAAF
:102050004306D1D181EA030101F000414FF00000B5
:1020600070BD50EA410606BF1046194652EA4306C3
:1020700019D094EA0C0F02D150EA013613D195EA37
:102080000C0F05D152EA03361CBF104619460AD17F
:1020900081EA030101F0004141F0FE4141F4700189
:1020A0004FF0000070BD41F0FE4141F4780170BD79
:1020B00070B54FF0FF0C4CF4E06C1CEA11541DBFDE
:1020C0001CEA135594EA0C0F95EA0C0F00F0A7F8E0
:1020D000A4EB050481EA030E52EA03354FEA01310D
:1020E00000F088804FEA03334FF0805545EA131320
:1020F00043EA12634FEA022245EA111545EA1065E8
:102100004FEA00260EF000419D4208BF964244F17E
:10211000FD0404F5407402D25B084FEA3202B61A9D
:1021200065EB03055B084FEA32024FF480104FF471
:10213000002CB6EB020E75EB030E22BFB61A7546E5
:1021400040EA0C005B084FEA3202B6EB020E75EB78
:10215000030E22BFB61A754640EA5C005B084FEAE0
:102160003202B6EB020E75EB030E22BFB61A7546AD
:1021700040EA9C005B084FEA3202B6EB020E75EBB8
:10218000030E22BFB61A754640EADC0055EA060E79
:1021900018D04FEA051545EA16754FEA06164FEABC
:1021A000C30343EA52734FEAC2025FEA1C1CC0D168
:1021B00011F4801F0BD141EA00014FF000004FF0F5
:1021C000004CB6E711F4801F04BF01430020B4F1B6
:1021D000FD0C88BFBCF5E06F3FF6AFAEB5EB030C6E
:1021E00004BFB6EB020C5FEA500C50F1000041EB6B
:1021F000045170BD0EF0004E4EEA113114EB5C0438
:10220000C2BFD4EB0C0541EA045170BD41F480110A
:102210004FF0000E013C90E645EA060E8DE60CEA12
:10222000135594EA0C0F08BF95EA0C0F3FF43BAF2F
:1022300094EA0C0F0AD150EA01347FF434AF95EAE6
:102240000C0F7FF425AF104619462CE795EA0C0FCA
:1022500006D152EA03353FF4FDAE1046194622E797
:1022600050EA410618BF52EA43067FF4C5AE50EA71
:1022700041047FF40DAF52EA43057FF4EBAE12E761
:102280004FF0FF3C06E000BF4FF0010C02E000BF42
:102290004FF0010C4DF804CD4FEA410C7FEA6C5C25
:1022A0004FEA430C18BF7FEA6C5C1BD001B050EAC8
:1022B000410C0CBF52EA430C91EA030F02BF90EAB3
:1022C000020F0020704710F1000F91EA030F58BF72
:1022D000994208BF90422CBFD8176FEAE37040F0D4
:1022E000010070474FEA410C7FEA6C5C02D150EA72
:1022F000013C07D14FEA430C7FEA6C5CD6D152EA2D
:10230000033CD3D05DF8040B704700BF84461046F1
:1023100062468C461946634600E000BF01B5FFF7F0
:10232000B7FF002848BF10F1000F01BD4DF808EDC0
:10233000FFF7F4FF0CBF012000205DF808FB00BF91
:102340004DF808EDFFF7EAFF34BF012000205DF8EB
:1023500008FB00BF4DF808EDFFF7E0FF94BF012038
:1023600000205DF808FB00BF4DF808EDFFF7CEFF39
:1023700094BF012000205DF808FB00BF4DF808ED78
:10238000FFF7C4FF34BF012000205DF808FB00BF49
:102390004FEA410212F5001215D211D56FF478738D
:1023A000B3EB625212D94FEAC12343F0004343EA30
:1023B000505311F0004F23FA02F018BF404270470B
:1023C0004FF00000704750EA013005D111F0004095
:1023D00008BF6FF0004070474FF00000704700BF2B
:1023E00002440346934202D003F8011BFAE7704708
:1023F00010B50446224613780134002BFAD1CC5C88
:10240000D4540133002CFAD110BD034613F8012B2C
:10241000002AFBD1181A013870472DE9F047002B2C
:1024200088B014461D46109E1299139F05DA05F1D7
:1024300000431D4614462D2300E000230B70149B1F
:1024400023F0200ABAF1460F04D0BAF1450F03D1A8
:10245000013601E0032300E002238DE8C80006AB4B
:10246000039307AB049322462B4600F069FDBAF1B3
:10247000470F804602D1119BDB0725D5BAF1460FE5
:1024800008EB06090FD198F80030302B09D120460F
:10249000294600220023FFF749FF10B9C6F10106C3
:1024A0003E603B6899442046294600220023FFF7FE
:1024B0003DFF08B1CDF81C90079B4B4504D25A1C38
:1024C000079230221A70F7E7079B4046C8EB0302D9
:1024D000159B1A6008B0BDE8F08773B50346002964
:1024E00003F8022B03DA49421A462D2401E01A466A
:1024F0002B24092944701BDD0DF106040A2691FBEB
:10250000F6F506FB1511092D01F13001234604F8FB
:1025100001192946F2DC05F1300103F8011D0DF126
:1025200007018B420AD213F8011B02F8011BF6E7E0
:1025300030241A46214402F8024B5970101A02B096
:1025400070BD00002DE9F04F8FB00C4616461F46B7
:10255000DDF86090054601F0B3FAD0F800A05046CF
:10256000FFF753FF00230C93D9F80030099007338D
:1025700023F0070303F10802D3E9000194F818805F
:10258000C9F80020C4E9120101F010FF0128D4E9C4
:10259000120117D100220023FFF7D2FE10B12D2324
:1025A00084F84330904B914AB8F1470F8CBF914665
:1025B000994603232361236823F0040323604FF02B
:1025C000000B86E001F0F2FE236848B9884A894989
:1025D000B8F1470F8CBF8946914603222261EBE791
:1025E000626828F0200B511C01D1062204E0BBF1E7
:1025F000470F02D10AB901226260606843F480612A
:102600008DE80300D4E912230DF12B0002900BA8F2
:1026100003900CA80590002021600690CDF8108052
:102620002846FFF7FAFEBBF1470F81460B9909D107
:10263000C81C02DB6368994230DDA8F102085FFA2A
:1026400088F802E0B8F1650F12D80139424604F16A
:1026500050000B91FFF741FF0C9A83468318012A23
:10266000236102DC2268D2072DD5013323612AE0E1
:10267000B8F1660F14D10029636807DD216113B931
:102680002268D0071CD501330B4418E013B9226827
:10269000D20701D5023312E0012310E04FF06708A2
:1026A0000C9A914205DB23682161D80708D54B1CA1
:1026B00005E00029D4BFC1F10203012313442361C3
:1026C000A1654FF0000B9DF82B3013B12D2384F83A
:1026D00043300097284621460DAA334600F040F9C2
:1026E000013002D14FF0FF3036E123685A0504D49F
:1026F000284631464A46236908E1B8F1650F40F2A1
:10270000CB80D4E9120100220023FFF70FFE00283E
:102710002AD028463146384A0123B8470130E1D053
:102720000C9B0B9A9A4207DB2368D80704D42368D2
:102730009B0700F1F880FDE0284631465246099B90
:10274000B8470130CED04FF000080C9B013B9845B4
:10275000EDDA2846314604F11A020123B847013068
:10276000C0D008F10108F0E70B9B002B28DC2846BD
:102770003146214A0123B8470130B3D00B9B23B91E
:102780000C9B13B92368D907D1D528463146524648
:10279000099BB8470130A5D04FF000080B9B284695
:1027A0005B429845314608DA04F11A020123B84722
:1027B000013097D008F10108F0E74A460C9BA5E0EC
:1027C000A36D0C9A9A42B4BF93469B46BBF1000F8F
:1027D00002DC4FF000081CE0284631464A465B46C2
:1027E000B8470130F5D17DE7D85A0008DC5A000817
:1027F000E05A0008E45A0008E85A00082846314622
:1028000004F11A020123B84701303FF46BAF08F11D
:102810000108A36D2BEAEB729A1A9045EEDB09EBE7
:1028200003080B9A0C9B9A420FDB2368DA070CD43F
:102830000C9B0B9A9944C8EB09099B1A9945A8BFB0
:102840009946B9F1000F08DC0FE0284631465246A0
:10285000099BB8470130EBD144E728463146424650
:102860004B46B84701303FF43DAF4FF000080AE057
:102870002846314604F11A020123B84701303FF4DB
:1028800031AF08F101080B9B0C9A29EAE971D31AC0
:102890005B1A9845ECDB4AE70C9A012A01DCDB075E
:1028A00039D5284631464A460123B84701303FF41E
:1028B00019AF284631465246099BB84701303FF4CC
:1028C00011AFD4E9120100220023FFF72FFD10B150
:1028D0004FF0000811E00C9B2846314609F1010237
:1028E000013B1CE02846314604F11A020123B84797
:1028F00001303FF4F7AE08F101080C9B013B98450D
:10290000F0DB2846314604F150025B46B8470130FF
:102910007FF40DAFE6E6284631464A460123B84724
:102920000130EED1DEE64FF00008E2680D9BD31ACD
:10293000984505DBE0680D9B9842B8BF18460BE050
:102940002846314604F119020123B84701303FF40B
:10295000C9AE08F10108E8E70FB0BDE8F08F00BF8D
:102960002DE9F84315461F468A680B6906469A42C8
:10297000A8BF13462B6091F843200C46DDF8208059
:102980000AB101332B602368990602D52B68023304
:102990002B60236813F006091DD094F84330226899
:1029A000003318BF012392061FD5E118302081F8AB
:1029B00043005A1C94F845102244023382F8431015
:1029C00013E03046394604F119020123C0470130B3
:1029D00007D009F10109E2682B68D31A9945F0DBA9
:1029E000DBE74FF0FF30BDE8F8833046394604F1AD
:1029F0004302C0470130F4D023682A6803F006037D
:102A0000E168042B08BFC2EB01052369A2680CBF73
:102A100025EAE57500259A42C4BFC3EB0203ED1811
:102A20004FF00009A9450ADA3046394604F11A0286
:102A30000123C0470130D4D009F10109F2E7002099
:102A4000BDE8F8832DE9F04F16468A6887B00293F7
:102A5000531EB3F5AE7F07460C4606D96FF4AE732E
:102A60001A4440F25D138B6000E000222368A04608
:102A700043F4F0634FF0000B48F81C3B4546DA4640
:102A8000CDF814B0CDF810B0D946CDF80CB0A1688F
:102A9000002900F0E98033681B78492B75D016D8DF
:102AA000392B0DD8312B3ED22D2B45D002D82B2BD4
:102AB00042D0D9E02E2B00F09780302B23D0D3E0EA
:102AC000452B00F09A80462B7CD0412B0CE0652BE7
:102AD00000F093800AD8542B7AD002D84E2B33D0F2
:102AE000C2E0592B7AD0612B49D0BDE06E2B2BD0A0
:102AF00004D8662B66D0692B47D0B5E0742B67D01D
:102B0000792B6BD0B0E0206810F4807F0BD020F0E0
:102B10008000206009F10109002A00F08C80013159
:102B2000013AA16087E00AEB0B01002940F09C808C
:102B3000216821F4C07105E02168080640F1948005
:102B400021F08001216074E0BAF1000F0ED1B9F1DB
:102B5000000F0ED1216801F4E060B0F5E06F08D1FC
:102B600021F4F06121604FF0010A62E0BAF1020F36
:102B70005DD0BBF1010F20D0BBF1040F1CE0BAF116
:102B8000010F71D14FF0020A53E0BBF1000F0ED1DB
:102B9000B9F1000F6BD1216801F4E060B0F5E06F8E
:102BA00069D121F4F06121604FF0010B41E0BBF1EC
:102BB000030F02D0BBF1050F56D10BF1010B5FFAE9
:102BC0008BFB36E0BBF1020F4ED14FF0030B30E030
:102BD000BBF1060F48D14FF0070B2AE0BBF1070FFE
:102BE00042D14FF0080B24E0216888053CD521F440
:102BF00020712160CDF80C901BE0216801F4A060E9
:102C0000B0F5806F04D048052ED5B9F1000F32D051
:102C1000880504D403980595C0EB0900049021F4BD
:102C2000F06141F4C07121604FF0000901E04FF004
:102C3000030A2B700135A368013BA36023690133AC
:102C400023617368013B002B736003DD336801333C
:102C500033601CE70192D4F88031384631469847FA
:102C6000019A00283FF413AFB9F1000F03D0236895
:102C700023F4807323600AF1FF3ABAF1010F10D8F0
:102C800045452A460BD9D4F87C3112F8011C384648
:102C9000324698472369013D013B2361F0E7012655
:102CA000B5E00BF1FF33062B2CD8BBF1020F1AD97C
:102CB000ABF1030B5FFA8BFBAA46CBEB050CE245AD
:102CC0000ED0D4F87C311AF8011D3846CDF804C076
:102CD000324698472369DDF804C0013B2361EEE7E3
:102CE000CBEB05050EE045452A46D8D9D4F87C3112
:102CF00012F8011C3846324698472369013D013BD2
:102D00002361F0E72368DA052ED55B050ED545452E
:102D10002A46C4D9D4F87C3112F8011C3846324610
:102D200098472369013D013B2361F0E715F8011C39
:102D30002369652903F1FF3305F1FF3A23610DD0C3
:102D400045290BD0D4F87C31384632469847236960
:102D500015F8021C013BA5F1020A2361D4F87C316D
:102D60003846324698475546266816F010064DD12B
:102D70002E70236803F4C063B3F5806F05D1039907
:102D8000C1EB09035A4263B915E0049D9DB1059D4D
:102D90003246691C38460A2302F08EF9049D421B14
:102DA000059D04F26F139D4228BF04F5B7752846B0
:102DB0001949FEF759FB41460022384601F060FBF5
:102DC0002268029D12F0020F804689462B6802D0CD
:102DD0001A1D2A6006E0029D12F0040F03F104029E
:102DE0002A6003D01B68C3E900890BE01D6801F06D
:102DF000DDFA10B901F00CFB03E04046494602F051
:102E00002FFD2860E3680133E36000E000263046D0
:102E100007B0BDE8F08F00BFEA5A00082DE9F74F70
:102E200003690C698046A342C0F28380013CA20082
:102E300001F1140700F114059146009257F824603F
:102E40002A44019255F824200136B2FBF6F6B94423
:102E5000002E3BD04FF0000E3A462846F34652F87B
:102E600004CB03681FFA8CFA4FEA1C4C0AFB06EAF3
:102E70000CFB06FC0CEB1A4C1FFA8AFACAEB0B0B84
:102E80004FEA1C4E1FFA83FA1FFA8CFCDA44CCEB93
:102E9000134C0CEB2A4C1FFA8AFA4AEA0C4A4A45B0
:102EA0004FEA2C4B40F804ABD9D9009AAB586BB918
:102EB000019A131FAB421A4602D8C8F8104005E029
:102EC0001268043B002AF8D1013CF3E7404601F0C8
:102ED00064F800282BDB01362B46002057F804CB82
:102EE0001A681FFA8CF1411A1FFA82FA4FEA1C4C39
:102EF0005144CCEB124202EB214289B210144F45EF
:102F000041EA024243F8042BE8D955F8242005EBA6
:102F1000840362B9043BAB421A4602D8C8F8104099
:102F200005E01268043B002AF8D1013CF3E7304683
:102F300000E0002003B0BDE8F08F000000000000BA
:102F40002DE9F04F456A9BB08246279CCDE90423CA
:102F500045B9102000F0B8FDCAF82400456085602E
:102F60000560C560DAF82430196861B15B68012238
:102F70004B6002FA03F350468B6000F0EBFDDAF889
:102F8000243000221A600598002805DA012320F079
:102F900000412360059101E000232360059F9C4AC6
:102FA00027F000431B0D1B0593421DD1269A42F2C8
:102FB0000F731360049B43B9964B974AC7F31300F2
:102FC00000280CBF1046184600E09248289F002FAA
:102FD00000F07185C37813B100F1080300E0C31C51
:102FE000289F3B6000F067BDDDE9044500222046D4
:102FF00029460023FFF79AF9804658B1269F0123FE
:103000003B60289F002F00F05385844838600138CA
:1030100000F051BD19AB009318AB01935046224606
:103020002B4601F0ACF8C7F30A5683465EB1C5F3F0
:10303000130343F07F51204641F44011A6F2FF36BE
:10304000CDF854801CE0199B189E1E446FF48263D7
:103050009E4209DB04991F3306F212409B1B21FAA2
:1030600000F09F40384304E06D48049A801B02FA48
:1030700000F0FEF77DFE0127A1F1F871013E1597E2
:103080000022684BFEF736FD5BA3D3E90023FEF771
:10309000E5FE5BA3D3E90023FEF72EFD0446304690
:1030A0000D46FEF775FE58A3D3E90023FEF7D6FEC2
:1030B00002460B4620462946FEF71EFD04460D46F5
:1030C000FFF766F929468146002220460023FFF7D4
:1030D00037F958B14846FEF75BFE02460B462046DC
:1030E0002946FFF723F908B909F1FF39B9F1160F9D
:1030F0000DD84D4B03EBC903D3E90001DDE90423EF
:10310000FFF73CF930B109F1FF39002700E0012752
:10311000149700E01490189B9E1B013E099604D55D
:10312000774208970027099701E000270897B9F12F
:10313000000F07DB099FCDF844904F440997002703
:103140000E9708E0089FC9EB07070897C9F1000729
:103150000E9700271197249F092F29D8052FC4BF48
:10316000043F2497249FC8BF0025A7F10203D8BFBE
:103170000125032B21D8DFE803F0060F0204012705
:1031800002E0012709E000270F97259F002F1EDD91
:103190000B9707973B461FE000270F97259F4F444B
:1031A0000B9701373B460797012BB8BF012313E06C
:1031B0000125002724970F9501E001270F974FF075
:1031C000FF370B97079700271223259704E0012765
:1031D0000B9707973B462597DAF824400022626058
:1031E000042101F114029A4220D862684900013298
:1031F0006260F6E7AFF3008061436F63A787D23F59
:10320000B3C8608B288AC63FFB799F501344D33FD5
:103210000000F07FF85A0008EF5A0008E95A000849
:10322000EEFBFFFF0000F83F085B000850466168B6
:1032300000F05BFCDAF824302060079F1B680E2F3B
:103240000A9300F26B81002D00F06881B9F1000F44
:10325000DDE90401CDE9120131DD814A09F00F03F6
:1032600002EBC3034FEA2914D3E90001CDE90C01B5
:10327000E0060CD5DDE912017A4B04F00F04D3E926
:103280000823FEF715FF0327CDE9040100E002271C
:10329000744D6CB1E10708D5DDE90C01D5E90023D7
:1032A000FEF7DCFDCDE90C01013764100835F0E7CD
:1032B000DDE90401DDE90C23FEF7FAFE1BE0C9F1AC
:1032C0000004DCB1664B04F00F0203EBC203DDE93E
:1032D0001201D3E90023FEF7C1FD624D241102273C
:1032E0004CB1E20704D5D5E900230137FEF7B6FD5E
:1032F00064100835F4E7CDE9040100E002271499D1
:10330000E9B1DDE90445002220462946564BFFF786
:1033100017F8C8B1079AE2B10B9B002B40F3FA8073
:1033200009F1FF3010902946204600224F4BFEF74E
:1033300095FDCDE904010B9901370C910DE0079A39
:10334000CDF840900C9208E0079BCDF840900C938C
:1033500003E00798CDF840900C903846FEF718FD32
:10336000DDE90423FEF77AFD0022414BFEF7C4FBA2
:103370000C9F0446A1F15075CFB900223D4BDDE909
:103380000401FEF7B7FB22462B4606460F46FEF722
:10339000F5FF002840F05382224605F100433046F5
:1033A0003946FEF7CDFF002840F03F82B2E00C9F87
:1033B0002B4B7A1E0F9F03EBC203002F5ED0D3E985
:1033C000002300202C49FEF773FE22462B46FEF711
:1033D00091FBDDE90467DDF8288004460D46394697
:1033E0003046FEF7D5FF0290FEF7D2FC02460B46B0
:1033F00030463946FEF77EFBDDF808C022460CF168
:10340000300308F8013B2B4606460F46FEF798FFAF
:10341000002840F03B8332463B4600201249FEF72D
:1034200069FB22462B46FEF78BFF002840F0D58033
:103430000A980C99C0EB08038B426BDA20462946A8
:1034400000220A4BFEF70AFD002204460D463046D4
:103450003946064BFEF702FD06460F46BFE700BFA2
:10346000085B0008D05B00080000F03F000024402B
:1034700000001C40000014400000E03F2246D3E959
:1034800000012B46FEF7EAFCDDE90467DDF8288041
:103490000C9ACDE916010A9C904439463046FEF755
:1034A00077FF0546FEF774FC02460B463046394668
:1034B000FEF720FB303504F8015B444506460F4615
:1034C00021D10022874BDDE91601FEF715FB0246EC
:1034D0000B4630463946FEF751FF00287DD1DDE925
:1034E000162300207F49FEF705FB02460B463046B7
:1034F0003946FEF725FF68B1A04618F8013C013CAB
:10350000302BF9D0C2E20022774BFEF7A7FC06462B
:103510000F46C2E7DDE91201CDE90401199B002B3A
:103520007CDBB9F10E0F79DC704B259F03EBC903EF
:10353000002FD3E9004514DA079F002F11DC40F07B
:103540007681204629460022694BFEF787FCDDE99B
:103550000423FEF709FF079D2C46002840F06981EF
:1035600071E1DDF82880DDE9046722462B4630460C
:103570003946FEF79DFDFEF70BFF0490FEF708FCB1
:1035800022462B46FEF76AFC02460B463046394679
:10359000FEF7B0FA049F024607F130060A9F08F8CA
:1035A000016BC7EB0806079F0B46BE4229D1FEF709
:1035B000A3FA22462B4606460F46FEF7DFFE70B9F9
:1035C0003046394622462B46FEF7B0FE002800F072
:1035D0005F82049FFB0702D45AE2DDF84090434625
:1035E000984618F8012C013B392A06D10A9F9F42C0
:1035F000F6D1302209F101093A701A7801321A70B5
:1036000046E20022384BFEF729FC00220023064642
:103610000F46FEF78BFE0028A7D039E20F9F002F40
:1036200030D0249F012F0ADC159F17B103F23343DA
:1036300002E0189BC3F136030E9D089E16E0079F1B
:103640007D1E0E9FAF4201DB7D1B06E00E9F0E9597
:10365000EB1B119F00251F441197079F002F03DAD2
:1036600008980023C61B01E0089E079B089F504650
:103670001F440897099F01211F44099700F04AFB46
:10368000044602E00E9D089E0F9C6EB1099F002F1C
:103690000ADD3B46089FB342A8BF3346FF1A08978E
:1036A000099FF61AFF1A09970E9F002F28DD0F9F1A
:1036B00007B3002D10DD21462A46504600F0CCFB12
:1036C00004465A462146504600F02DFB594607460F
:1036D000504600F03FFABB460E9F7A1B10D0504672
:1036E00059460AE00000E03F00002440085B000863
:1036F000000014400E9A5046594600F0ADFB834638
:103700005046012100F006FB119F0546002F05DD04
:10371000294650463A4600F09FFB0546249F012F5C
:1037200012DC049880B90599C1F3130373B921F031
:1037300000473F0D3F0557B1089F01370897099F84
:1037400001370997012702E0002700E0049F119844
:1037500040B12B6905EB8303186900F08EFAC0F1C4
:10376000200000E00120099B034413F01F030FD049
:10377000C3F12002042A09DD0899099AC3F11C0348
:1037800019441A4408911E44099209E008D01346CE
:10379000089809991C331844194408901E4409914B
:1037A000089A002A04DD5946504600F0A3FB8346E0
:1037B000099B002B05DD294650461A4600F09AFB6E
:1037C00005461498E0B15846294600F0E6FB00286B
:1037D00016DA594650460A22002300F0D2F90F9912
:1037E00009F1FF39834649B121460A225046002398
:1037F00000F0C7F90B9A0446079201E00B9B079370
:103800000798002829DC2499022926DD88B9294651
:103810000522079B504600F0B4F905462946584654
:1038200000F0BBFB00280EDC03E00C9D00E000254F
:103830002C46259FDDF828806FEA07090AE00C9DD9
:10384000DDF840902C460A9F312307F101083B70B8
:1038500009F101092746002407E10F98002800F02C
:10386000BB80002E05DD21465046324600F042FB6B
:1038700004469FB16168504600F037F92269064658
:10388000023204F10C0192000C3000F025F9504690
:103890003146012200F02EFB074600E027460A9E33
:1038A00029465846FFF7BAFA214600F1300C804607
:1038B0005846CDF808C000F070FB3A4608902946FB
:1038C000504600F087FBC3680246DDF808C04BB9DC
:1038D00011465846039200F060FB039A0346DDF858
:1038E00008C000E00123504611460393CDF808C0FC
:1038F00000F030F9039BDDF808C063B9249951B991
:10390000049800F0010232B9BCF1390F35D0089BA0
:10391000002B24DC25E00898002802DA002B08DCC4
:103920001FE023D1249909BB049800F00102EAB9F1
:10393000F4E7594601225046CDF808C000F0DAFA03
:103940002946834600F029FB0028DDF808C003DC87
:1039500007D11CF0010F04D0BCF1390F0DD008F1D4
:10396000310C06F1010886F800C07EE0002B06F15C
:10397000010809DDBCF1390F03D139233370013659
:103980005BE00CF1010368E00A99079AC1EB0803B8
:103990004646934206F801CC3CD059460A22002301
:1039A000504600F0EEF8BC428346214650464FF0A8
:1039B0000A024FF0000304D100F0E3F80446074682
:1039C0006EE700F0DEF8394604460A22504600232E
:1039D00000F0D7F8074663E70F9E58462946FFF7E1
:1039E0001DFA0A9F00F1300C07F806C0079F013648
:1039F000BE4207DB0A9E012FACBFF61901362746EF
:103A0000002407E0594650460A22002300F0B9F886
:103A10008346E2E7594601225046CDF808C000F03F
:103A200069FA2946834600F0B8FA0028DDF808C094
:103A300003DC14D11CF0010F11D016F8013CB04684
:103A4000392B06F1FF3607D10A98B042F5D1312360
:103A500009F10109037008E00133337005E0B04655
:103A600018F8013C013E302BF9D05046294600F0B1
:103A700071F86FB12CB1BC4203D05046214600F022
:103A800069F85046394600F065F801E0DDF84090ED
:103A90005046594600F05EF80023269F88F8003013
:103AA00009F101033B60289F27B1C7F8008001E0BE
:103AB000024800E00A981BB0BDE8F08FE85A000801
:103AC000004870476C040020024B0146186800F063
:103AD00019BC00BF5004002010B50023934203D04E
:103AE000CC5CC4540133F9E710BD70B5456A044697
:103AF0000E463DB91020FFF7E7FF60624560856024
:103B00000560C560656AEB6843B1636ADA6852F8BC
:103B1000260078B1016842F8261017E020460421FB
:103B2000212200F0E0FB636AE860DB68002BECD147
:103B3000002070BD012101FA06F56A1D20469200A1
:103B400000F0D1FB0028F3D04660856000220261BE
:103B5000C26070BD70B5446A06460D463CB910207F
:103B6000FFF7B2FF7062446084600460C4603DB1DE
:103B7000736A6A68DB6853F82210296043F82250A0
:103B800070BD2DE9F0410C461E460D690746143103
:103B90000023086801331FFA80FC000C02FB0C6C48
:103BA000504300EB1C401FFA8CFC060CAB420CEBA4
:103BB000004041F8040BECDBD6B1A3689D4212DB58
:103BC000616838460131FFF790FF226904F10C016A
:103BD0000232804692000C30FFF77EFF21463846C5
:103BE000FFF7B8FF444604EB850301355E612561AC
:103BF0002046BDE8F0812DE9F8431446984603F1CC
:103C0000080209230D4692FBF3F206460123002128
:103C10009A4202DD5B000131FAE73046FFF765FFAB
:103C2000089B092C43614FF001030146036111DD3C
:103C300005F109094F46254417F8013B30460A2291
:103C4000303BFFF79EFFAF420146F5D109EB040779
:103C5000083F02E005F10A0709242546454509DA2F
:103C60003B1B5B5D30460A22303BFFF78AFF013584
:103C70000146F3E70846BDE8F883030C1B0413B9BB
:103C80000004102300E0002310F07F4F04BF000267
:103C9000083310F0704F04BF0001043310F0404FA0
:103CA00004BF80000233002803DB420003D5581C08
:103CB00070471846704720207047036813F00702CA
:103CC0000BD0D90722D49A0703D55B0803600120E3
:103CD00070479B0803600220704799B209B91B0C1A
:103CE000102213F0FF0F04BF1B0A0832190704BF8C
:103CF0001B090432990704BF9B080232D90702D47A
:103D00005B0805D001320360104670470020704701
:103D10002020704710B50C460121FFF7E6FE012276
:103D20004461026110BD2DE9F04F164633690A69FE
:103D300085B09A420D4601DA35460E46D5F8108018
:103D40003769AB68696808EB07049C42C8BF01315A
:103D5000FFF7CBFE00F1140303EB840101911A4637
:103D6000DDF804A0524503D2002142F8041BF7E716
:103D700005F1140106F1140201EB880802EB870734
:103D8000CDF808800397039E1546B24256D2B5F887
:103D900000C00432BCF1000F25D00F461D4600269E
:103DA00057F8049BD5F800801FFA89FB1FFA88FAA0
:103DB0000CFB0BAA4FEA19494FEA18480CFB09887B
:103DC000B24408EB1A481FFA8AFA4AEA084A4FEA4C
:103DD0001846DDF80880AB46B8454BF804AB01D96E
:103DE0005D46DDE76E6032F8028CB8F1000F23D03B
:103DF0001E680F461D464FF00009B7F800A0B5F841
:103E000002C0B6B208FB0ACCE14446EA0946AC4619
:103E10004CF8046B57F8046BB5F804A0360C08FB9B
:103E200006A6DDF808A006EB194657454FEA1649E5
:103E300001D26546E1E76E600433A4E7019B002CE4
:103E400003DC046105B0BDE8F08F53F8042D002AAF
:103E5000F7D1013CF3E7000012F003032DE9F04134
:103E600005460E46174607D0214A013B52F823204B
:103E70000023FFF786FE0646BF1035D06C6A3CB9BA
:103E80001020FFF721FE6862446084600460C46013
:103E9000D5F82480D8F808407CB9284640F2712132
:103EA000FFF738FF0023C8F808000446036004E069
:103EB0007F1019D0206870B10446FB07F8D5314651
:103EC00022462846FFF72FFF314680462846FFF757
:103ED00041FE4646ECE7284621462246FFF723FFEF
:103EE000002320600360E7E73046BDE8F08100BFB3
:103EF000F85B00082DE9F0470C4623694FEA621A87
:103F00000AEB03094968A3688046154609F10107D1
:103F10009F4202DD01315B00FAE74046FFF7E5FD15
:103F20000023064600F11402534504DA002142F84A
:103F300023100133F8E720692AEAEA7104F1140337
:103F400015F01F0C02EB810103EB800E16D0CCF1B3
:103F5000200A002518680A4600FA0CF0054342F8CA
:103F6000045B53F8045B734525FA0AF501D2114648
:103F7000F0E74D6045B109F1020705E053F8042B65
:103F8000734541F8042BF9D3013F40463761214680
:103F9000FFF7E0FD3046BDE8F08702690B6910B518
:103FA000D21A13D19C00143001F1140203192244D7
:103FB00053F8044D52F8041D8C4203D008D24FF040
:103FC000FF3010BD9842F3D3002010BD104610BD45
:103FD000012010BD2DE9F04706460C460846114663
:103FE0001546FFF7DAFF071E08D130463946FFF7BE
:103FF0007CFD012303614761BDE8F08701DB0027F9
:1040000003E0234601272C461D4661683046FFF732
:104010006CFD22692B69143405F1140606EB830A42
:10402000C76004EB820C00F11403002154F8047BF8
:1040300056F8049B1FFA87F81FFA89F541444FEAA6
:104040001949C5EB0108C9EB174707EB28471FFAC9
:1040500088F83914B24548EA0747254643F8047BF7
:10406000E4D865450DD255F8044BA6B20E44240C95
:1040700004EB2644B6B2211446EA044443F8044B48
:10408000EFE753F8041D09B9013AFAE70261BDE808
:10409000F08700000F4B0B40A3F15073002B01DDA4
:1040A000194609E05B421B15132B4FF0000105DC9C
:1040B0004FF4002242FA03F100207047322B4FF0F8
:1040C0000102DABFC3F1330302FA03F313461846C1
:1040D000704700BF0000F07F2DE9F041066900F154
:1040E000140707EB860656F8044C88462046FFF76F
:1040F000C4FDC0F120030A28A6F10405C8F8003069
:1041000014DCBD42C0F10B0188BF56F8085C24FAEC
:1041100001FC98BF0025153025FA01F184404CF0D0
:104120007F5343F4401341EA040224E0BD4286BFBA
:10413000A6F1080556F8081C0021B0F10B0615D0B1
:10414000B440C0F12B0021FA00FC44F07F5444F449
:104150004014BD4244EA0C038CBF55F8044C0024C3
:1041600024FA00F0B14040EA010204E044F07F5339
:1041700043F440130A4610461946BDE8F0812DE984
:10418000F74301211D46DDF82890DDF82C80144608
:10419000FFF7ABFCC5F30A570646C5F313030FB18F
:1041A00043F480130193D4B102A840F8084D684647
:1041B000FFF783FD009B48B1019AC0F1200102FA8C
:1041C00001F1C2400B437361019200E07361019BF6
:1041D000002B0CBF01240224B361346107E001A865
:1041E000FFF76BFD019B01247361346120303FB107
:1041F000A7F233470744C9F80070C0F135000AE060
:10420000A0F2324006EB8403C9F800001869FFF7FA
:1042100034FDC0EB4410C8F80000304603B0BDE8E0
:10422000F0832DE9F3410E4669468046FFF754FFBF
:104230000D46044601A93046FFF74EFF009F0B468E
:10424000019902467F1AD8F810003169411A07EB2C
:1042500041110029CCBF05EB0155A3EB01532046CA
:104260002946FDF725FF02B0BDE8F08110B5013900
:1042700002F1140349111269013100EB810103EBD2
:104280008202934204D253F8044B40F8044BF8E7FF
:10429000884203D2002340F8043BF9E710BD00F147
:1042A000140200694B11834210B50CDC0CDA11F0DA
:1042B0001F0109D052F8230020FA01F404FA01F199
:1042C00081420ED100E0034602EB8303934219467C
:1042D00005D951F8041C043B0029F7D001E0002067
:1042E00010BD012010BD38B502FB01F4214600F0DD
:1042F00009F8054618B100212246FEF771F8284654
:1043000038BD000070B5CD1C25F0030508350C2D17
:1043100038BF0C25002D06463FDB8D423DD3214B97
:104320001C6818462146A1B10B685B1B0ED40B2BF1
:1043300003D90B60CC18CD501FE08C4202D16268CB
:1043400002601AE04B6863600C4616E00C46496850
:10435000E9E7154C23681BB9304600F049F82060A6
:104360002946304600F044F8431C014615D0C41CD1
:1043700024F0030484420AD1256004F10B00231DBC
:1043800020F00700C31A0BD05A42E25070BD3046ED
:10439000611A00F02DF80130EED10C2333600020BB
:1043A00070BD00BFC4040020C004002031F00043F1
:1043B00010B500D178B10C4AA3F5801494420CD901
:1043C000B3F5801F0BD3094A93420AD1D0F1010003
:1043D00038BF002010BD022010BD042010BD0320F6
:1043E00010BD002010BD00BFFFFFDF7F0000F07F89
:1043F00038B5064C0023054608462360FDF7F6FA5B
:10440000431C02D1236803B12B6038BD0C0500208A
:10441000004870470000C07F30B5026811F8015BAA
:10442000541C55B153782246A3F14104192C98BF6E
:104430002033AB42F2D0002030BD0460012030BDFB
:104440002DE9F0410D469046FFF724FE06460F4643
:10445000B8F1000F0FD0C5F30A53C3F16B03002B63
:1044600009DD1C0504F17F5303F540130022FDF71D
:10447000F5FCBDE8F08130463946BDE8F08100002A
:104480002DE9F04F00239FB08146049115921A93B5
:104490004FF0000A4FF0000B1991199A13780D2B69
:1044A00005D8092B14D2002B00F0B18113E02B2B7F
:1044B00007D02D2B02D0202B0DD109E00126099623
:1044C00001E000270997531C199353782BB99EE1FB
:1044D00001321992E1E700260996199C2378302BC6
:1044E0005AD16378582B01D0782B49D1099F1AAB48
:1044F00000930197484619A99C4A1BAB00F0A8FEFF
:1045000010F00706054600F0AD85062E02D10134F5
:1045100019947EE11A9A3AB11CA83521FFF7A6FE3C
:1045200048461A99FFF716FB1B9A062E21D8DFE89A
:1045300006F0040D08171C0D04004FF0000BDA46BE
:1045400017E0DDF870A0DDF874B012E01D9B02F2F8
:10455000334223F48013DDF870A043EA025B08E0E5
:10456000DFF80CB24FF0000A03E06FF0004B4FF0A1
:10457000FF3A2B0740F176854BF0004B00F072BDFF
:10458000199B5A1C19925B78302BF9D0002B00F044
:1045900069850123059301E000260596199F4FF0D8
:1045A00000080797CDF80C804446199E3578A5F190
:1045B0003003DAB2092A10D8082CD8BF039F4FF075
:1045C0000A02D8BF02FB073706F10106D4BF0397E2
:1045D00002FB083801341996E7E74846FFF770FAFE
:1045E00007684846FFF76CFA0068FDF70EFF39468A
:1045F0000246304601F0FEF8064628B100232A465E
:10460000194625460A935FE04846199DFFF758FA78
:104610000068FDF7FAFE2B1819932A5C002C45D18F
:104620002346302A05D1199A0133511C1991527829
:10463000F7E7A2F13101082942D8199E1946002353
:1046400007961D46303A03F1010029D001446E1C43
:10465000771B874210DA771E082F06DC039F4FF086
:104660000A0C0CFB07F7039704E0102EDCBF0A27A7
:1046700007FB08F80136EBE7002BACBFEB182B1C4F
:10468000082B03F1010505DC039E0A2303FB062624
:10469000039604E0102DDCBF0A2303FB082800204A
:1046A000199B5A1C19925A78034602E02546334654
:1046B0003146A2F130000928C4D901270A9703E046
:1046C0000025012029460A9022F02006452E53D1CC
:1046D00025B91BB9059E002E00F09980199F7A1C00
:1046E00019927A7804972B2A04D02D2A05D0002617
:1046F0000F9608E000200F9001E001270F97049E1D
:10470000B21C1992B278A2F13007092F32D8302AA0
:1047100004D1199A571C19975278F8E7A2F131077A
:10472000082F29D81998A2F130070690199A561C1B
:10473000199652780E96A2F13006092E05D84FF040
:104740000A0C0CFB0727303FF0E70E98069EC6EBDD
:10475000000CBCF1080F44F61F6C02DC6745B8BFC3
:10476000BC460F9F57B1CCF1000C07E0045C000879
:104770000000F07F049E19964FF0000C002D4CD1E4
:10478000002B40F06F84059F002F40F06B840A9847
:1047900000283CD14E2A1BD002DC492A05D036E045
:1047A000692A02D06E2A13D031E019A8AC49FFF76C
:1047B00033FE60B3199B19A8013BAA491993FFF76F
:1047C0002BFE10B9199B01331993DFF8B4B21AE02C
:1047D00019A8A549FFF720FEC8B1199B1B78282B03
:1047E0000FD119A8A1491CAA00F074FF052808D10F
:1047F0001D9BDDF870A043F0FF4B4BF4E00B00F085
:1048000031BCDFF880B24FF0000A00F02BBC049BF3
:1048100019930026099600F025BCC1EB0C01039802
:10482000102DB4BFAC464FF0100CCDF808C0069167
:10483000FDF79EFADDF808C0002C08BF2C46BCF13D
:10484000090F82468B4615DD894B03EBCC0353E9F8
:104850001223FDF703FB064640460F46FDF788FA94
:1048600002460B4630463946FDF746F9DDF808C0EA
:1048700082468B460F2D37DC069F002F00F0F28317
:1048800023DD162F07DC7A49524601EBC701D1E937
:1048900000015B4614E0069EC5F125039E4223DC21
:1048A000734CC5F10F0504EBC503751BD3E900017B
:1048B00052465B4604EBC504FDF7D0FAD4E9002369
:1048C000FDF7CCFA82468B46CCE3069F16370BDB0E
:1048D000DDF818C0664F5046A7EBCC075946D7E91C
:1048E0000023FDF7E5FBEDE7069ECCEB0508B044A1
:1048F000B8F1000F61DD18F00F030AD05C4A02EB3B
:10490000C303D3E9000152465B46FDF7A7FA82468E
:104910008B4638F00F0800F0C880B8F59A7F13DD99
:104920004FF00008CDF80C80CDF81C80CDF8148035
:10493000079F2223C9F80030DFF844B14FF0000A86
:10494000002F40F07B838DE34FEA281850465946EC
:104950000026B8F1010F0DDD18F0010F06D0454B10
:1049600003EBC603D3E90023FDF778FA01364FEADB
:104970006808EEE73F4B8246A1F1547B03EBC60685
:1049800052465B46D6E90001FDF768FA21F0004384
:104990008B461B0D38491B058B428246C0D8A1F5BA
:1049A00080118B4206D90026DFF8DCB04FF0FF3AC9
:1049B00004967CE00BF1547B77E076D0C8F10008D8
:1049C00018F00F030AD02A4A504602EBC303594697
:1049D000D3E90023FDF76CFB82468B465FEA28187B
:1049E00063D0B8F11F0F08DD4FF00008CDF80C8040
:1049F000CDF81C80CDF814801EE118F0100F14BF04
:104A00006A26002604961D4E50465946B8F1000FFE
:104A10000ADD18F0010F03D0D6E90023FDF71EFAD6
:104A20004FEA68080836F1E7049F82468B469FB339
:104A3000C1F30A53C3F16B03002B2DDD1F2B25DDC2
:104A4000342B4FF0000A02DD4FF05C7B24E0203B6A
:104A50004FF0FF3101FA03F303EA0B0B1CE000BF38
:104A6000DD5A0008F25A0008E55A0008405C0008C8
:104A7000085B0008D05B00080000A07C185C000800
:104A80000000F07F0000F8FFFFFFEF7F4FF0FF32E4
:104A900002FA03F303EA000A5046594600220023B3
:104AA000FDF744FC00289FD101E000270497039EF6
:104AB00048460096079922462B46FFF79CF8079038
:104AC00000283FF42DAF069F4FF000087B42002FD7
:104AD000A8BF00230E93CDF80C80079E484671684E
:104AE000FFF703F8059000283FF422AF326906F182
:104AF0000C01023292000C30FEF7EEFF1BAB00936C
:104B00001CAB0193484652465B46CDE90AABFFF722
:104B100036FB1A9000283FF40BAF48460121FFF7FF
:104B2000F9F8039000283FF403AF1B9BDDF818C091
:104B3000002B2CEAEC77C0F28B800E9C3A461C448A
:104B4000049E1C9D9B1B59196FF47F739942C5F1FC
:104B5000360580F287805B1A1F2BC3EB05054FF0EB
:104B6000010078DC9840002314900F930498661994
:104B70001544A642B4BF334623460544AB42A8BF02
:104B80002B46002B02DDF61AED1AE41A0E990029C5
:104B90006FD1002E00F38780002F40F08E80002D13
:104BA00000F39580002C00F39C8048461A99059AE2
:104BB000FFF710FA804600283FF4BAAEC66800231B
:104BC000C36003990896FFF7E8F9002880F29880FF
:104BD000002E40F02082BAF1000F40F01C82CBF38F
:104BE0001303002B40F017822BF000431B0D1B0515
:104BF000B3F1D66F40F20F82D8F81430002B7AD080
:104C0000414601224846FFF775F903998046FFF7B0
:104C1000C4F9002840F3FF812BF00043049F1B0DD3
:104C20001B05002F00F09C80B3F1D66F00F2988036
:104C3000B3F15C7F00F2F181079E22234FF0000A5E
:104C40004FF0000BC9F80030002E40F0F78109E268
:104C5000FA1A0E9C74E7844E1490761A00FA06F63F
:104C60000F9683E700264FF0010C0F96CDF850C049
:104C70007CE7484603990E9AFFF7EEF80390002868
:104C80003FF456AE484603991A9AFFF74CF803468C
:104C900000283FF44DAE48461A990293FEF75AFF9A
:104CA000029B1A9375E748461A993246FFF722F994
:104CB0001A9000287FF470AF3AE6484605993A46C4
:104CC000FFF7CAF8059000287FF469AF30E6484640
:104CD00005992A46FFF70EF9059000287FF462AF88
:104CE00026E6484603992246FFF704F90390002878
:104CF0007FF45BAF1CE6D8F81030012B80DC8AE132
:104D000063D1089FCBF313032FB358495A468B4204
:104D10002FD1049E51466EB1554B0BEA0303B3F1FC
:104D2000D46F07D81B0DC3F16B034FF0FF3000FAAF
:104D300003F301E04FF0FF3399421AD14D4B9A42F1
:104D400002D101313FF4F4AD494B4FF0000A13405A
:104D500003F5801B5FE163B9BAF1000F09D15BE78E
:104D6000A3F580136FEA135B6FEA0B5B4FF0FF3A1A
:104D700051E10F9B13B113EA0B0F02E0149E16EAE8
:104D80000A0F00F04881089F50465946049A57B1CF
:104D9000FFF756FB02460B46DDE90A01FCF7ACFEC5
:104DA00082468B4637E1FFF74BFB02460B46DDE9B7
:104DB0000A01FCF79FFE0022002382468B46FDF786
:104DC000B5FA00287FF438AF25E140460399FFF794
:104DD00028FA00224FF0804304460D46FDF7BAFA48
:104DE000002832D0089E26B1234F002634463D4687
:104DF0004CE0BAF1000F03D1CBF313033BB90BE046
:104E0000BAF1010F03D1BBF1000F3FF415AF00263B
:104E10001A4F0024184D39E0204629460022164B2F
:104E2000FDF78EFA40B9204629460022144BFDF7C3
:104E300015F804460D4601E0114D002405F1004728
:104E400016941797DDE9166720E0204629460022D0
:104E50000B4BFDF703F8089E04460D4696B901F189
:104E60000047109011970FE0E3FBFFFFFFFF0F00DB
:104E70000000F07FFFFFEF7F0000F03F0000F0BF79
:104E80000000E03FCDE91045DDE910672BF0004C54
:104E90004FEA1C5C844B4FEA0C5C9C4531D1DDE948
:104EA0000A01ABF1547BCDE90C0150465946CDF8CF
:104EB00008C0FFF7EFF802460B4630463946FCF7CC
:104EC000CDFF02460B4650465946FCF715FE21F031
:104ED00000431B0D754A1B0593428246DDF808C04E
:104EE0000CD9734B0D99994203D10C9A01323FF4BE
:104EF0001FADDFF8BCB14FF0FF3A7BE001F1547B0E
:104F000042E0049B53B3BCF1D46F27D85EA3D3E92E
:104F1000002320462946CDF808C0FDF71BFADDF82E
:104F200008C0B8B12946204600F07AFC002808BF26
:104F30000120FCF71DFF089E04460D46DDF808C061
:104F400026B901F100471290139701E0CDE912450F
:104F5000DDE9126707F1D663CCEB0307DDE90A014F
:104F6000CDF808C0FFF796F802460B4630463946A2
:104F7000FCF774FF02460B46DDE90A01FCF7BCFDB5
:104F8000DDF808C082468B46049F002F32D12BF0FB
:104F900000431B0D1B059C452CD129462046FDF7DF
:104FA000F7F9FCF7F5FE02460B4620462946FCF7CA
:104FB000A1FD089F04460D462FB9BAF1000F02D19A
:104FC000CBF3130686B12046294631A3D3E900234B
:104FD000FDF7B6F9002831D1204629462EA3D3E9A2
:104FE0000023FDF7CBF904E02DA3D3E90023FDF75F
:104FF000A7F918BB48461A99FEF7ACFD4846059933
:10500000FEF7A8FD48460399FEF7A4FD4846414631
:10501000FEF7A0FD61E5049E86B1264F00200C90AE
:105020000D9750465946DDE90C23FCF717FF8246E1
:105030008B4619B910B92223C9F8003048461A998D
:10504000FEF788FD48460599FEF784FD484603991A
:10505000FEF780FD48460799FEF77CFD484641462D
:10506000FEF778FD159E0EB1199B3360099F1FB1A5
:1050700050460BF1004101E0504659461FB0BDE8D3
:10508000F08F00BFAFF300800000C0FFFFFFDF41E3
:105090009535A094FFFFDF3F35E5AF350000E03FD9
:1050A0009535A094FFFFCF3F0000E07FFFFF9F7C7E
:1050B000FFFFEF7F0000503984463F482DE9F04F55
:1050C000D0F800800E46344614F8015B08EB05006A
:1050D000407800F0080000F0FF0708B12646F2E72C
:1050E0002D2D03D1B41C7578012703E02B2D04BFAF
:1050F0007578B41C33F010000DD1302D08D1207814
:1051000000F0DF00582851D165781023023402E006
:10511000002B08BF0A23002F0CBF6FF0004A4FF08E
:10512000004ABAFBF3F903FB19AA0026304608EB44
:10513000050B9BF801B01BF0040F01D0303D0BE0D4
:105140001BF0030B1BD0BBF1010F14BF4FF0570B2B
:105150004FF0370BCBEB05059D4210DAB6F1FF3F60
:105160000AD0484506D801D1554503DC03FB005061
:10517000012601E04FF0FF3614F8015BD7E7731CFE
:105180000CD1002F4FF022030CBF6FF000404FF006
:105190000040CCF800302AB9BDE8F08F07B140429A
:1051A00042B106B1611E1160BDE8F08F002B08BF4F
:1051B0000823B0E7BDE8F08FA4040020F0B506692D
:1051C0004B11B34200F1140226DA11F01F0102EB79
:1051D000860602EB830401D1134616E052F82350F1
:1051E000C1F1200CCD4004341346B44209D22768E3
:1051F00007FA0CF73D4343F8045B54F8045BCD40D9
:10520000F3E71D604DB1043307E0B44205D254F812
:10521000041B43F8041BF8E713469B1A9B10036119
:1052200003B94361F0BDA0F13003092B01D8203848
:105230000AE0A0F16103052B01D8473804E0A0F192
:105240004103052B02D82738C0B2704700207047B1
:105250002DE9F04F89B00591069390460390FEF733
:105260002FFC00684FF0000B0490FDF7CEF8049B74
:105270000599034413F8013C029007930B6802332D
:105280001F4613F8010B302802D10BF1010BF7E791
:10529000FFF7C9FF0646F8B938460499029A00F0AC
:1052A000A9FA002839D1029B029DF85C3D44FFF722
:1052B000BAFF002833D02B4618781F46302803F158
:1052C0000103F9D0FFF7AFFFD0F1010438BF00248C
:1052D0002E464FF0010B01E000242646B9464D460C
:1052E000287809F10109FFF79EFF0028F7D1284629
:1052F0000499029A00F07EFA58B95EB9029E2E44D3
:10530000B1464D46287809F10109FFF78CFF0028C6
:10531000F7D136B1761BB60003E03D4600E0064605
:1053200001242B78502B01D0702B34D16B782B2B90
:1053300005D02D2B05D005F10109002104E0002145
:1053400000E0012105F1020999F800000191FFF741
:105350006AFF431EDBB2182B01991CD8A0F1100A7A
:1053600009F10103994699F8000001330191009376
:10537000FFF759FF421ED2B2182A0199009B05D8A7
:105380000A2202FB0A0AAAF1100AEBE709B1CAF1E4
:10539000000A564400E0A9460599C1F800902CB1D6
:1053A000BBF1000F0CBF062000207DE1EB1B013B91
:1053B0002146072B02DD01315B10FAE70398FEF767
:1053C00094FB4FF0000900F1140A04465346CB4603
:1053D000BD4233D96A1E0592079915F8012C8A42FD
:1053E00009D0BBF1200F17D1C3F800904FF000098E
:1053F0000433CB4610E0029A0599C2F1010C8C44AB
:10540000BC45EED3604604998DE8081000F0F2F92F
:105410009DE8081080B1E4E715F8010C0093FFF750
:1054200002FF00F00F0000FA0BF0DDF814C0009B43
:1054300049EA00090BF1040B6546C9E743F8049BF0
:10544000CAEB03039B10236148465F01FEF715FC7E
:10545000D8F80050381AA84226DD471B39462046A6
:10546000FEF71DFFC8B17B1E03F01F014FF00109BD
:1054700009FA01F15A115AF8222011420ED04B4577
:1054800002DC4FF0020909E02046B91EFEF707FFD3
:105490000028F6D04FF0030900E081462046394647
:1054A000FFF78CFE3E440CE009DA2F1A21460398E0
:1054B0003A46FEF71FFDF61B044600F1140A4FF0B2
:1054C0000009D8F808309E4208DD03982146FEF70F
:1054D00041FB129A00231360A320E5E0D8F80430C2
:1054E0009E4254DA9E1BAE422EDBD8F80C30022BC3
:1054F0001AD0032B1CD0012B1DD1AE421BD1012D84
:105500000BDCD8F80430069962200B60012323617C
:10551000CAF80030129B1C60C6E02046691EFEF7E8
:10552000BEFE0028EDD106E0139B002BE9D002E07F
:10553000139B002BE5D103982146FEF70BFB129934
:1055400000230B605020AFE0771EB9F1000F07D1A8
:10555000002F07DD20463946FEF7A1FE814601E017
:105560004FF001097B11012207F01F0702FA07F72C
:105570005AF8233031461F42204618BF49F002092D
:10558000AD1BFFF71BFE0227D8F8046000E00127DF
:10559000B9F1000F00F08380D8F80C30022B0ED048
:1055A000032B10D0012B78D119F0020F75D0DAF847
:1055B000003049EA030919F0010F07D16DE0139B90
:1055C000C3F101031393139B002B66D0D4F8109002
:1055D00004F114034FEA890A03EB0A01184653F851
:1055E000042BB2F1FF3F02D00132026021E0002221
:1055F0008B4243F8042CF1D3A368994512DB616810
:1056000003980131FEF771FA226904F10C010232AC
:10561000834692000C30FEF75FFA21460398FEF7AE
:1056200099FA5C4623695A1C226104EB8303012228
:105630005A61022F04F1140311D1D8F80020013A65
:10564000954227D16A11012105F01F0501FA05F5E0
:1056500053F822301D420CBF02270F461AE0226980
:105660004A450ADD20460121FFF7A8FDD8F8083099
:1056700001369E423FF729AF0BE015F01F0508D019
:10568000534453F8040CFEF7F8FAC5F12005A8427C
:10569000E8DB012747F0200701E047F01007129BE5
:1056A00038461C60069B1E6009B0BDE8F08FC2F151
:1056B0000802920070B5C2F12004056850F8043F5A
:1056C00003FA04F6D3403543884240F8045C036093
:1056D000F3D370BD2DE9F04F0B6885B05E110390D8
:1056E00013F01F0302EB86060293039B18BF0436D8
:1056F000A6F104081546D3F80090002246F8042CC1
:10570000474644469246934699F8011000293AD0FC
:1057100008468DE80600FFF786FD9DE80600D8B92B
:10572000202912D8DA452BDABC4205D2072A03DC3D
:1057300020463946FFF7BBFFAC4220D9271F002285
:1057400044F8042CDA463C461AE029294CD1039B44
:1057500009F10201196016E00132082A0BF1010B70
:1057600006DDAC420CD9002244F8042C043C012292
:10577000216800F00F0040EA0111216000E00822DA
:1057800009F10109C0E7BBF1000F2DD0BC4205D2E1
:10579000072A03DC20463946FFF789FFAC420CD9C3
:1057A0002B4654F8042B444543F8042BF9D9002226
:1057B00043F8042B4345FAD90DE0029B5BB1C3F1DA
:1057C00020094FF0FF3323FA09F956F8043C03EAA5
:1057D000090346F8043C56F8043C043E33B9B5428C
:1057E000F9D101232B6001E0042000E0052005B081
:1057F000BDE8F08F70B58AB10B4605461C7810F8ED
:10580000016B0131B44201D1012A03D128781B7800
:10581000C01A70BD013A002CEED1F7E7104670BDFA
:105820004A0011D212F5001211D20DD56FF478731F
:10583000B3EB62520ED44FEAC12343F0004343EA74
:10584000505323FA02F070474FF00000704750EABF
:10585000013002D14FF0FF3070474FF00000704729
:105860004FEA4102B2F1E04324BFB3F5001CDCF182
:10587000FE5C0DD901F0004C4FEAC0024CEA5070BA
:10588000B2F1004F40EB830008BF20F001007047E9
:1058900011F0804F21D113F13872BCBF01F00040EC
:1058A000704741F480114FEA5252C2F11802C2F11E
:1058B000200C10FA0CF320FA02F018BF40F001009F
:1058C0004FEAC1234FEAD32303FA0CFC40EA0C0051
:1058D00023FA02F34FEA4303CCE77FEA625307D18E
:1058E00050EA01331EBF4FF0FE4040F440007047C5
:1058F00001F0004040F0FE4040F40000704700BF5F
:1059000025642E2564200D0A000000002041540D5E
:105910000A0000002041542B53415042523D332C89
:10592000312C22434F4E54595045222C224750527D
:1059300053220D0A000000002041542B53415042D5
:10594000523D332C312C2241504E222C2277617053
:105950002E766F6461666F6E652E636F2E756B2297
:105960000D0A00002041542B53415042523D312C2E
:10597000310D0A002041542B53415042523D322CEC
:10598000310D0A002041542B48545450494E49547B
:105990000D0A000041542B48545450504152413D8F
:1059A00022434944222C310D0A00000041542B4867
:1059B000545450504152413D2255524C222C2268A1
:1059C0007474703A2F2F64656D6F2E7468696E67FA
:1059D00073626F6172642E696F3A38302F6170693B
:1059E0002F76312F3758687A6D3331334D65313228
:1059F00054437939467054302F74656C656D657405
:105A00007279220D0A00000044485431315F45523A
:105A1000524F525F434845434B53554D00000000E1
:105A200064687431312073756363657373000000BB
:105A300054454D50524154555245202564202D2047
:105A400048554D49444954592025640A0000000036
:105A5000256400007B2254656D70223A000000002E
:105A60002C0000002248756D223A00007D000000E5
:105A700064617461203A2025730000002041542B9A
:105A800048545450444154413D32302C3130303030
:105A9000300D0A002041542B48545450414354497E
:105AA0004F4E3D310D0A000054494D454F5554208D
:105AB0000D200000737464696F2E633A20696E6371
:105AC0007265617365204D41585F535452494E478A
:105AD0005F53495A450A0D00494E4600696E6600FB
